{
  "_format": "hh-sol-artifact-1",
  "contractName": "BuyPoint",
  "sourceName": "contracts/_BuyPoint.sol",
  "abi": [
    {
      "inputs": [
        {
          "internalType": "address",
          "name": "_masterWallet",
          "type": "address"
        },
        {
          "internalType": "address[]",
          "name": "initialTokens",
          "type": "address[]"
        }
      ],
      "stateMutability": "nonpayable",
      "type": "constructor"
    },
    {
      "inputs": [
        {
          "internalType": "address",
          "name": "owner",
          "type": "address"
        }
      ],
      "name": "OwnableInvalidOwner",
      "type": "error"
    },
    {
      "inputs": [
        {
          "internalType": "address",
          "name": "account",
          "type": "address"
        }
      ],
      "name": "OwnableUnauthorizedAccount",
      "type": "error"
    },
    {
      "inputs": [
        {
          "internalType": "address",
          "name": "token",
          "type": "address"
        }
      ],
      "name": "SafeERC20FailedOperation",
      "type": "error"
    },
    {
      "anonymous": false,
      "inputs": [
        {
          "indexed": true,
          "internalType": "address",
          "name": "token",
          "type": "address"
        },
        {
          "indexed": false,
          "internalType": "uint256",
          "name": "amount",
          "type": "uint256"
        }
      ],
      "name": "EmergencyWithdraw",
      "type": "event"
    },
    {
      "anonymous": false,
      "inputs": [
        {
          "indexed": true,
          "internalType": "address",
          "name": "previousOwner",
          "type": "address"
        },
        {
          "indexed": true,
          "internalType": "address",
          "name": "newOwner",
          "type": "address"
        }
      ],
      "name": "OwnershipTransferred",
      "type": "event"
    },
    {
      "anonymous": false,
      "inputs": [
        {
          "indexed": true,
          "internalType": "address",
          "name": "from",
          "type": "address"
        },
        {
          "indexed": true,
          "internalType": "address",
          "name": "token",
          "type": "address"
        },
        {
          "indexed": false,
          "internalType": "string",
          "name": "orderId",
          "type": "string"
        },
        {
          "indexed": false,
          "internalType": "uint256",
          "name": "amount",
          "type": "uint256"
        },
        {
          "indexed": false,
          "internalType": "enum PaymentType",
          "name": "paymentType",
          "type": "uint8"
        }
      ],
      "name": "PaymentReceived",
      "type": "event"
    },
    {
      "anonymous": false,
      "inputs": [
        {
          "indexed": false,
          "internalType": "address",
          "name": "token",
          "type": "address"
        }
      ],
      "name": "TokenAllowed",
      "type": "event"
    },
    {
      "anonymous": false,
      "inputs": [
        {
          "indexed": false,
          "internalType": "address",
          "name": "token",
          "type": "address"
        }
      ],
      "name": "TokenDisallowed",
      "type": "event"
    },
    {
      "stateMutability": "payable",
      "type": "fallback"
    },
    {
      "inputs": [
        {
          "internalType": "address",
          "name": "token",
          "type": "address"
        }
      ],
      "name": "addAllowedToken",
      "outputs": [],
      "stateMutability": "nonpayable",
      "type": "function"
    },
    {
      "inputs": [
        {
          "internalType": "address",
          "name": "",
          "type": "address"
        }
      ],
      "name": "allowedTokens",
      "outputs": [
        {
          "internalType": "bool",
          "name": "",
          "type": "bool"
        }
      ],
      "stateMutability": "view",
      "type": "function"
    },
    {
      "inputs": [
        {
          "internalType": "string",
          "name": "orderId",
          "type": "string"
        }
      ],
      "name": "buyPointByNative",
      "outputs": [],
      "stateMutability": "payable",
      "type": "function"
    },
    {
      "inputs": [
        {
          "internalType": "address",
          "name": "token",
          "type": "address"
        },
        {
          "internalType": "string",
          "name": "orderId",
          "type": "string"
        },
        {
          "internalType": "uint256",
          "name": "amount",
          "type": "uint256"
        }
      ],
      "name": "buyPointByToken",
      "outputs": [],
      "stateMutability": "nonpayable",
      "type": "function"
    },
    {
      "inputs": [
        {
          "internalType": "address",
          "name": "token",
          "type": "address"
        },
        {
          "internalType": "uint256",
          "name": "amount",
          "type": "uint256"
        }
      ],
      "name": "emergencyWithdraw",
      "outputs": [],
      "stateMutability": "nonpayable",
      "type": "function"
    },
    {
      "inputs": [
        {
          "internalType": "address",
          "name": "token",
          "type": "address"
        }
      ],
      "name": "isTokenAllowed",
      "outputs": [
        {
          "internalType": "bool",
          "name": "",
          "type": "bool"
        }
      ],
      "stateMutability": "view",
      "type": "function"
    },
    {
      "inputs": [],
      "name": "masterWallet",
      "outputs": [
        {
          "internalType": "address",
          "name": "",
          "type": "address"
        }
      ],
      "stateMutability": "view",
      "type": "function"
    },
    {
      "inputs": [],
      "name": "owner",
      "outputs": [
        {
          "internalType": "address",
          "name": "",
          "type": "address"
        }
      ],
      "stateMutability": "view",
      "type": "function"
    },
    {
      "inputs": [
        {
          "internalType": "address",
          "name": "token",
          "type": "address"
        }
      ],
      "name": "removeAllowedToken",
      "outputs": [],
      "stateMutability": "nonpayable",
      "type": "function"
    },
    {
      "inputs": [],
      "name": "renounceOwnership",
      "outputs": [],
      "stateMutability": "nonpayable",
      "type": "function"
    },
    {
      "inputs": [
        {
          "internalType": "address",
          "name": "newOwner",
          "type": "address"
        }
      ],
      "name": "transferOwnership",
      "outputs": [],
      "stateMutability": "nonpayable",
      "type": "function"
    },
    {
      "stateMutability": "payable",
      "type": "receive"
    }
  ],
  "bytecode": "0x60a06040523480156200001157600080fd5b5060405162001d5838038062001d5883398181016040528101906200003791906200050d565b33600073ffffffffffffffffffffffffffffffffffffffff168173ffffffffffffffffffffffffffffffffffffffff1603620000ad5760006040517f1e4fbdf7000000000000000000000000000000000000000000000000000000008152600401620000a4919062000584565b60405180910390fd5b620000be816200025b60201b60201c565b50600073ffffffffffffffffffffffffffffffffffffffff168273ffffffffffffffffffffffffffffffffffffffff160362000131576040517f08c379a0000000000000000000000000000000000000000000000000000000008152600401620001289062000602565b60405180910390fd5b8173ffffffffffffffffffffffffffffffffffffffff1660808173ffffffffffffffffffffffffffffffffffffffff168152505060005b8151811015620002525760018060008484815181106200018d576200018c62000624565b5b602002602001015173ffffffffffffffffffffffffffffffffffffffff1673ffffffffffffffffffffffffffffffffffffffff16815260200190815260200160002060006101000a81548160ff0219169083151502179055507fbeceb48aeaa805aeae57be163cca6249077a18734e408a85aa74e875c43738098282815181106200021d576200021c62000624565b5b602002602001015160405162000234919062000584565b60405180910390a1808062000249906200068c565b91505062000168565b505050620006d9565b60008060009054906101000a900473ffffffffffffffffffffffffffffffffffffffff169050816000806101000a81548173ffffffffffffffffffffffffffffffffffffffff021916908373ffffffffffffffffffffffffffffffffffffffff1602179055508173ffffffffffffffffffffffffffffffffffffffff168173ffffffffffffffffffffffffffffffffffffffff167f8be0079c531659141344cd1fd0a4f28419497f9722a3daafe3b4186f6b6457e060405160405180910390a35050565b6000604051905090565b600080fd5b600080fd5b600073ffffffffffffffffffffffffffffffffffffffff82169050919050565b6000620003608262000333565b9050919050565b620003728162000353565b81146200037e57600080fd5b50565b600081519050620003928162000367565b92915050565b600080fd5b6000601f19601f8301169050919050565b7f4e487b7100000000000000000000000000000000000000000000000000000000600052604160045260246000fd5b620003e8826200039d565b810181811067ffffffffffffffff821117156200040a5762000409620003ae565b5b80604052505050565b60006200041f6200031f565b90506200042d8282620003dd565b919050565b600067ffffffffffffffff82111562000450576200044f620003ae565b5b602082029050602081019050919050565b600080fd5b60006200047d620004778462000432565b62000413565b90508083825260208201905060208402830185811115620004a357620004a262000461565b5b835b81811015620004d05780620004bb888262000381565b845260208401935050602081019050620004a5565b5050509392505050565b600082601f830112620004f257620004f162000398565b5b81516200050484826020860162000466565b91505092915050565b6000806040838503121562000527576200052662000329565b5b6000620005378582860162000381565b925050602083015167ffffffffffffffff8111156200055b576200055a6200032e565b5b6200056985828601620004da565b9150509250929050565b6200057e8162000353565b82525050565b60006020820190506200059b600083018462000573565b92915050565b600082825260208201905092915050565b7f4d61737465722077616c6c65742063616e6e6f74206265207a65726f00000000600082015250565b6000620005ea601c83620005a1565b9150620005f782620005b2565b602082019050919050565b600060208201905081810360008301526200061d81620005db565b9050919050565b7f4e487b7100000000000000000000000000000000000000000000000000000000600052603260045260246000fd5b7f4e487b7100000000000000000000000000000000000000000000000000000000600052601160045260246000fd5b6000819050919050565b6000620006998262000682565b91507fffffffffffffffffffffffffffffffffffffffffffffffffffffffffffffffff8203620006ce57620006cd62000653565b5b600182019050919050565b60805161164e6200070a60003960008181610555015281816107ed015281816108cc0152610b04015261164e6000f3fe6080604052600436106100a05760003560e01c806395ccea671161006457806395ccea67146101d8578063c812b12714610201578063e744092e1461021d578063f2fde38b1461025a578063f9eaee0d14610283578063fc0d0117146102c0576100e0565b80634178617f1461011b57806349816f2e14610144578063715018a61461016d5780638da5cb5b1461018457806390469a9d146101af576100e0565b366100e0576040517f08c379a00000000000000000000000000000000000000000000000000000000081526004016100d790610e9f565b60405180910390fd5b6040517f08c379a000000000000000000000000000000000000000000000000000000000815260040161011290610f0b565b60405180910390fd5b34801561012757600080fd5b50610142600480360381019061013d9190610f93565b6102eb565b005b34801561015057600080fd5b5061016b6004803603810190610166919061105b565b610480565b005b34801561017957600080fd5b5061018261060e565b005b34801561019057600080fd5b50610199610622565b6040516101a691906110de565b60405180910390f35b3480156101bb57600080fd5b506101d660048036038101906101d19190610f93565b61064b565b005b3480156101e457600080fd5b506101ff60048036038101906101fa91906110f9565b610771565b005b61021b60048036038101906102169190611139565b610885565b005b34801561022957600080fd5b50610244600480360381019061023f9190610f93565b610a06565b60405161025191906111a1565b60405180910390f35b34801561026657600080fd5b50610281600480360381019061027c9190610f93565b610a26565b005b34801561028f57600080fd5b506102aa60048036038101906102a59190610f93565b610aac565b6040516102b791906111a1565b60405180910390f35b3480156102cc57600080fd5b506102d5610b02565b6040516102e291906110de565b60405180910390f35b6102f3610b26565b600073ffffffffffffffffffffffffffffffffffffffff168173ffffffffffffffffffffffffffffffffffffffff1603610362576040517f08c379a000000000000000000000000000000000000000000000000000000000815260040161035990611208565b60405180910390fd5b600160008273ffffffffffffffffffffffffffffffffffffffff1673ffffffffffffffffffffffffffffffffffffffff16815260200190815260200160002060009054906101000a900460ff16156103ef576040517f08c379a00000000000000000000000000000000000000000000000000000000081526004016103e690611274565b60405180910390fd5b60018060008373ffffffffffffffffffffffffffffffffffffffff1673ffffffffffffffffffffffffffffffffffffffff16815260200190815260200160002060006101000a81548160ff0219169083151502179055507fbeceb48aeaa805aeae57be163cca6249077a18734e408a85aa74e875c43738098160405161047591906110de565b60405180910390a150565b600081116104c3576040517f08c379a00000000000000000000000000000000000000000000000000000000081526004016104ba906112e0565b60405180910390fd5b600160008573ffffffffffffffffffffffffffffffffffffffff1673ffffffffffffffffffffffffffffffffffffffff16815260200190815260200160002060009054906101000a900460ff1661054f576040517f08c379a00000000000000000000000000000000000000000000000000000000081526004016105469061134c565b60405180910390fd5b61059c337f0000000000000000000000000000000000000000000000000000000000000000838773ffffffffffffffffffffffffffffffffffffffff16610bad909392919063ffffffff16565b8373ffffffffffffffffffffffffffffffffffffffff163373ffffffffffffffffffffffffffffffffffffffff167f6c79489e18542d5fcf1a8ce6190871f47e413e863d98c65fc168002319ca9fbd8585856000604051610600949392919061143f565b60405180910390a350505050565b610616610b26565b6106206000610c2f565b565b60008060009054906101000a900473ffffffffffffffffffffffffffffffffffffffff16905090565b610653610b26565b600160008273ffffffffffffffffffffffffffffffffffffffff1673ffffffffffffffffffffffffffffffffffffffff16815260200190815260200160002060009054906101000a900460ff166106df576040517f08c379a00000000000000000000000000000000000000000000000000000000081526004016106d6906114cb565b60405180910390fd5b6000600160008373ffffffffffffffffffffffffffffffffffffffff1673ffffffffffffffffffffffffffffffffffffffff16815260200190815260200160002060006101000a81548160ff0219169083151502179055507feaa9136602e3b70a4e689b5b6f55bda25ca62b917d839c0ff87f5902387f77b98160405161076691906110de565b60405180910390a150565b610779610b26565b600073ffffffffffffffffffffffffffffffffffffffff168273ffffffffffffffffffffffffffffffffffffffff16036107e8576040517f08c379a00000000000000000000000000000000000000000000000000000000081526004016107df90611208565b60405180910390fd5b6108337f0000000000000000000000000000000000000000000000000000000000000000828473ffffffffffffffffffffffffffffffffffffffff16610cf39092919063ffffffff16565b8173ffffffffffffffffffffffffffffffffffffffff167f5fafa99d0643513820be26656b45130b01e1c03062e1266bf36f88cbd3bd96958260405161087991906114eb565b60405180910390a25050565b600034116108c8576040517f08c379a00000000000000000000000000000000000000000000000000000000081526004016108bf906112e0565b60405180910390fd5b60007f000000000000000000000000000000000000000000000000000000000000000073ffffffffffffffffffffffffffffffffffffffff163460405161090e90611537565b60006040518083038185875af1925050503d806000811461094b576040519150601f19603f3d011682016040523d82523d6000602084013e610950565b606091505b5050905080610994576040517f08c379a000000000000000000000000000000000000000000000000000000000815260040161098b90611598565b60405180910390fd5b600073ffffffffffffffffffffffffffffffffffffffff163373ffffffffffffffffffffffffffffffffffffffff167f6c79489e18542d5fcf1a8ce6190871f47e413e863d98c65fc168002319ca9fbd85853460016040516109f9949392919061143f565b60405180910390a3505050565b60016020528060005260406000206000915054906101000a900460ff1681565b610a2e610b26565b600073ffffffffffffffffffffffffffffffffffffffff168173ffffffffffffffffffffffffffffffffffffffff1603610aa05760006040517f1e4fbdf7000000000000000000000000000000000000000000000000000000008152600401610a9791906110de565b60405180910390fd5b610aa981610c2f565b50565b6000600160008373ffffffffffffffffffffffffffffffffffffffff1673ffffffffffffffffffffffffffffffffffffffff16815260200190815260200160002060009054906101000a900460ff169050919050565b7f000000000000000000000000000000000000000000000000000000000000000081565b610b2e610d72565b73ffffffffffffffffffffffffffffffffffffffff16610b4c610622565b73ffffffffffffffffffffffffffffffffffffffff1614610bab57610b6f610d72565b6040517f118cdaa7000000000000000000000000000000000000000000000000000000008152600401610ba291906110de565b60405180910390fd5b565b610c29848573ffffffffffffffffffffffffffffffffffffffff166323b872dd868686604051602401610be2939291906115b8565b604051602081830303815290604052915060e01b6020820180517bffffffffffffffffffffffffffffffffffffffffffffffffffffffff8381831617835250505050610d7a565b50505050565b60008060009054906101000a900473ffffffffffffffffffffffffffffffffffffffff169050816000806101000a81548173ffffffffffffffffffffffffffffffffffffffff021916908373ffffffffffffffffffffffffffffffffffffffff1602179055508173ffffffffffffffffffffffffffffffffffffffff168173ffffffffffffffffffffffffffffffffffffffff167f8be0079c531659141344cd1fd0a4f28419497f9722a3daafe3b4186f6b6457e060405160405180910390a35050565b610d6d838473ffffffffffffffffffffffffffffffffffffffff1663a9059cbb8585604051602401610d269291906115ef565b604051602081830303815290604052915060e01b6020820180517bffffffffffffffffffffffffffffffffffffffffffffffffffffffff8381831617835250505050610d7a565b505050565b600033905090565b600080602060008451602086016000885af180610d9d576040513d6000823e3d81fd5b3d925060005191505060008214610db8576001811415610dd4565b60008473ffffffffffffffffffffffffffffffffffffffff163b145b15610e1657836040517f5274afe7000000000000000000000000000000000000000000000000000000008152600401610e0d91906110de565b60405180910390fd5b50505050565b600082825260208201905092915050565b7f55736520627579506f696e7442794e617469766520746f2073656e64206e617460008201527f69766520746f6b656e0000000000000000000000000000000000000000000000602082015250565b6000610e89602983610e1c565b9150610e9482610e2d565b604082019050919050565b60006020820190508181036000830152610eb881610e7c565b9050919050565b7f46756e6374696f6e206e6f7420737570706f7274656400000000000000000000600082015250565b6000610ef5601683610e1c565b9150610f0082610ebf565b602082019050919050565b60006020820190508181036000830152610f2481610ee8565b9050919050565b600080fd5b600080fd5b600073ffffffffffffffffffffffffffffffffffffffff82169050919050565b6000610f6082610f35565b9050919050565b610f7081610f55565b8114610f7b57600080fd5b50565b600081359050610f8d81610f67565b92915050565b600060208284031215610fa957610fa8610f2b565b5b6000610fb784828501610f7e565b91505092915050565b600080fd5b600080fd5b600080fd5b60008083601f840112610fe557610fe4610fc0565b5b8235905067ffffffffffffffff81111561100257611001610fc5565b5b60208301915083600182028301111561101e5761101d610fca565b5b9250929050565b6000819050919050565b61103881611025565b811461104357600080fd5b50565b6000813590506110558161102f565b92915050565b6000806000806060858703121561107557611074610f2b565b5b600061108387828801610f7e565b945050602085013567ffffffffffffffff8111156110a4576110a3610f30565b5b6110b087828801610fcf565b935093505060406110c387828801611046565b91505092959194509250565b6110d881610f55565b82525050565b60006020820190506110f360008301846110cf565b92915050565b600080604083850312156111105761110f610f2b565b5b600061111e85828601610f7e565b925050602061112f85828601611046565b9150509250929050565b600080602083850312156111505761114f610f2b565b5b600083013567ffffffffffffffff81111561116e5761116d610f30565b5b61117a85828601610fcf565b92509250509250929050565b60008115159050919050565b61119b81611186565b82525050565b60006020820190506111b66000830184611192565b92915050565b7f496e76616c696420746f6b656e20616464726573730000000000000000000000600082015250565b60006111f2601583610e1c565b91506111fd826111bc565b602082019050919050565b60006020820190508181036000830152611221816111e5565b9050919050565b7f546f6b656e20616c726561647920616c6c6f7765640000000000000000000000600082015250565b600061125e601583610e1c565b915061126982611228565b602082019050919050565b6000602082019050818103600083015261128d81611251565b9050919050565b7f416d6f756e74206d7573742062652067726561746572207468616e2030000000600082015250565b60006112ca601d83610e1c565b91506112d582611294565b602082019050919050565b600060208201905081810360008301526112f9816112bd565b9050919050565b7f546f6b656e206e6f7420616c6c6f776564000000000000000000000000000000600082015250565b6000611336601183610e1c565b915061134182611300565b602082019050919050565b6000602082019050818103600083015261136581611329565b9050919050565b82818337600083830152505050565b6000601f19601f8301169050919050565b60006113988385610e1c565b93506113a583858461136c565b6113ae8361137b565b840190509392505050565b6113c281611025565b82525050565b7f4e487b7100000000000000000000000000000000000000000000000000000000600052602160045260246000fd5b60028110611408576114076113c8565b5b50565b6000819050611419826113f7565b919050565b60006114298261140b565b9050919050565b6114398161141e565b82525050565b6000606082019050818103600083015261145a81868861138c565b905061146960208301856113b9565b6114766040830184611430565b95945050505050565b7f546f6b656e206e6f7420696e20616c6c6f776564206c69737400000000000000600082015250565b60006114b5601983610e1c565b91506114c08261147f565b602082019050919050565b600060208201905081810360008301526114e4816114a8565b9050919050565b600060208201905061150060008301846113b9565b92915050565b600081905092915050565b50565b6000611521600083611506565b915061152c82611511565b600082019050919050565b600061154282611514565b9150819050919050565b7f4661696c656420746f20666f7277617264206e617469766520746f6b656e0000600082015250565b6000611582601e83610e1c565b915061158d8261154c565b602082019050919050565b600060208201905081810360008301526115b181611575565b9050919050565b60006060820190506115cd60008301866110cf565b6115da60208301856110cf565b6115e760408301846113b9565b949350505050565b600060408201905061160460008301856110cf565b61161160208301846113b9565b939250505056fea26469706673582212203d7052aba5c98c51868303a6e459d6f1d80a03b9016ec3759d6d1649b459acb064736f6c63430008140033",
  "linkReferences": {},
  "deployedLinkReferences": {}
}